{
  "contractName": "Test",
  "abi": [
    {
      "inputs": [],
      "stateMutability": "nonpayable",
      "type": "constructor"
    },
    {
      "inputs": [],
      "name": "testCounter",
      "outputs": [
        {
          "internalType": "uint256",
          "name": "",
          "type": "uint256"
        }
      ],
      "stateMutability": "view",
      "type": "function"
    },
    {
      "inputs": [],
      "name": "increment",
      "outputs": [],
      "stateMutability": "nonpayable",
      "type": "function"
    }
  ],
  "bytecode": "0x6080604052601860005534801561001557600080fd5b50601260005560c9806100296000396000f3fe6080604052348015600f57600080fd5b506004361060325760003560e01c8063d09de08a146037578063d356aeb814603f575b600080fd5b603d6059565b005b604760005481565b60405190815260200160405180910390f35b6000808154606590606b565b90915550565b6000600019821415608c57634e487b7160e01b600052601160045260246000fd5b506001019056fea26469706673582212202a7addf2fa8396099d833777d4b49155d781490755ba6bd78d461365ce0d005d64736f6c634300080a0033",
  "immutableReferences": {},
  "source": "// SPDX-License-Identifier: MIT\npragma solidity >=0.4.22 <0.9.0;\n\n/// @author sylar123abc\n/// @title A simple contract test \ncontract Test {\n    \n    uint public testCounter = 24;\n\n    constructor(){\n        testCounter = 18;\n    }\n\n    function increment() external {\n        ++testCounter;\n    }\n}",
  "sourcePath": "/Users/cyrus/vue_dapp_frame/contracts/TestContract.sol",
  "compiler": {
    "name": "solc",
    "version": "0.8.10+commit.fc410830.Emscripten.clang"
  },
  "schemaVersion": "3.3.4",
  "updatedAt": "2022-06-08T15:48:52.855Z",
  "devdoc": {
    "author": "sylar123abc",
    "kind": "dev",
    "methods": {},
    "title": "A simple contract test ",
    "version": 1
  },
  "userdoc": {
    "kind": "user",
    "methods": {},
    "version": 1
  }
}